:100000007EE0127EE3C37EE38F7EE2F37EE2EC7E4F
:10001000E3B210CE80001A508603B783FE8615B770
:1000200083FE8600B793FDB793FF86FFB793FCB7B7
:1000300093FE8604B793FDB793FF86001F8BBDE345
:10004000B24B494C4F204D6F6E69746F72207632FF
:1000500000BDE39EBDE3A8BDE3C3813A273A810D0D
:1000600027F5810A27F184DF814D1027005C814448
:10007000102700958147102700C98155102700E1FE
:10008000815710270198815810270176BDE3B25798
:100090006861743F007EE051BDE33F9703BDE34ECE
:1000A0009F04BDE33F8100261FBDE33FA7800A03F5
:1000B00026F7862ABDE38FBDE3C3810D2796810A0B
:1000C00027F5813A27D220EF2087BDE30E9E00BDA1
:1000D000E39EBDE2ECBDE3B2205B00A6809701BDCC
:1000E000E2F3BDE3B25D2000BDE31C81A01027FF59
:1000F000608188270B818D26D69601A71F7EE0CFD1
:100100009601A71F301E7EE0CFBDE30E9E00BDE32B
:100110009EBDE2ECBDE3B23A2000C610A680BDE26F
:10012000F38620BDE38F5A26F3BDE39EBDE3C38172
:100130000D27DE81201027FF1B810826EF3088E085
:100140007EE111BDE30E6E9F0000A603814D2610D7
:10015000A604814F260AA60581442604A6068139F5
:1001600039BDE3B2496E7374616C6C6564206D6F68
:1001700064756C65733A0D0A00CCE3CE5F4C3406AF
:100180003510C641BDE14A2621865BBDE38F1F982D
:10019000BDE38F5C865DBDE38F8620BDE38F3410A9
:1001A0003007BDE384BDE39E35103089010026D4BD
:1001B000BDE3B253656C656374206D6F64756C65E7
:1001C00020746F2072756E3A2000BDE3C381201049
:1001D00027FE81810D1027FE7B8041102DFE753496
:1001E00002CCE3CE5F4C340635103504BDE14A261F
:1001F00005C100270A5A3089010026F07EE1CA3481
:1002000010398EE2819F08BDE239BDE3B23A303049
:1002100030303030303146460D0A007EE0548EE2F8
:10022000B29F08BDE239BDE3B253393033303030CC
:100230003046430D0A007EE054BDE3B246726F6D56
:100240003A00BDE3179E009F04BDE3B20D0A546F50
:100250003A00BDE3179E009F06BDE39E96049106FB
:10026000260A960790052718811025028610970305
:10027000AD9F00089604910623E29605910723DCC2
:1002800039863ABDE38F9603BDE2F39E04BDE2ECEE
:100290008600BDE2F3D603DB04DB05EB84A680BD5C
:1002A000E2F30A0326F59F041F9840BDE2F3BDE385
:1002B0009E398653BDE38F8631BDE38F96038B0352
:1002C000BDE2F39E04BDE2EC8600BDE2F3D603DBA3
:1002D00004DB05CB03EB84A680BDE2F30A0326F51D
:1002E0009F041F9840BDE2F3BDE39E391F10BDE29D
:1002F000F31F98340244444444BDE3003502840FA4
:10030000810A24058B307EE38F8B377EE38FBDE33C
:10031000B2416464723A00CC0000DD00BDE35D2AA6
:1003200001391F89BDE3004F0801090008010900D8
:100330000801090008010900D300DD007EE31CBDAF
:10034000E35D484848489702BDE35D9B0239BDE341
:100350003F3402BDE33F1F8935021F0139BDE3C3AE
:10036000813024038A8039813A22038030398141E7
:1003700025F281462203803739816125E781662293
:10038000E3805739A680260139BDE38F7EE38434AC
:1003900006F683FEC40227F9B783FF350639860DBA
:1003A000BDE38F860A7EE38F863EBDE38F86207E87
:1003B000E38F3412AE63A6802604AF633592BDE3AB
:1003C0008F20F3B683FE840127F9B683FF39446199
:1003D0006E546F6D616E656B0D4B616D696C5A0D7E
:100400007EE4154D4F443942415349430010DE10FC
:10041000BDEBE5201310CE21CC10DF10BDEBE5CCF9
:100420000249DD0ADD0CDD0EBDE53F8EE483BDE54E
:100430003810DE100F1DBDE53F9E0A9F128E000092
:100440009F160D1D2605863ABDEBAABDE590BDE6BB
:10045000EA240E292BBDE65B810427E1BDE60D20D1
:10046000D034109E0C9C0E351027037EE55FC30030
:1004700000270D340683270F350622048D1020BD7A
:100480007EE55654494E592056312E3337043406F2
:10049000BDE65B9F18A6609E129C0C270510A3006A
:1004A00024029E0ABDE7C49F1225229F143002A693
:1004B00080810426FA9C0C270EA6809F1A9E14A702
:1004C000809F149E1A20EE9E149F0C9F0E9E18C6AD
:1004D000FF5CA680810426F95D2603326239301F55
:1004E000CB04301F5AA600812027F78604A7014FAE
:1004F0009E0C9F1AD30CDD0CDD0EBDE76224079F16
:100500000C9F0E7EE54E9E0C9F149E1A9C12270A8D
:10051000A6829F1A9E14A78220EE35069E12ED81B8
:100520009F1A9E18A6809F189E1AA7809F1A810462
:1005300026F039BDEBAA3001A600810426F5398EDC
:10054000E5478DF40F1C390D0A7F000000048D244F
:10055000534F525259048D1C57484154203F048D2B
:1005600013484F57203F048D0B425245414B0453D3
:10057000544F50048DC98607BDEBAADC16BDEA5E58
:100580008620BDEBAA35108DAF8DB47EE4318DAFE2
:100590008E0200BDEBA081202514817F27F58C02FF
:1005A00048260486072002A780BDEBAA20E5810823
:1005B0002724811827D8810A2731810D26D50D1DC2
:1005C0002705BDEBAA20073410BDE53F3510860492
:1005D000A7008E0200398C020027B8301F8608BDA4
:1005E000EBAA8620BDEBAA860820BE1A01061D20B4
:1005F000B830018D66810426F8BDE93196169A1748
:1006000027149C0C26037EE55FEC81DD16BDEB9C78
:100610008D0825033406397EE9428D3F9F128EEB0B
:1006200037A680810426059E121A01399F1A9E1250
:100630009F189E18A100261530019F189E1AA680AB
:100640009F1A810426ECEC009E181CFE399E1AA607
:1006500080810426FA300220C83001A600812027BC
:10066000F8398D1A2422814125118146220D8037C7
:100670001CFE3981412504815A230D1A013981302C
:1006800025F9813922F580301CFE398DCE8DE42587
:10069000121F89A6018DDC24E23001C041584FD3DE
:1006A000101CFE39BDE9103406BDE65B812C27091C
:1006B00081291A0127157EE5563001BDE843340231
:1006C000BDE65B8129350226ED1CFE30019F12AD8F
:1006D000F19E121CFE39BDE65B812D260D30018D89
:1006E000092506405082001CFC39BDE65BBDE67E54
:1006F000242F81241A01266030016FE26FE2A600E8
:10070000BDE662254F300134103402EC6385F026DB
:100710004A5849584958495849EBE0ED623510208C
:10072000DD300134026FE2A600BDE67E25263001F1
:1007300034103402EC63584929215849291DE363D8
:10074000291958492915EB608900290FED63326199
:10075000351020D335061CFE1CFD39AE6132651AFA
:10076000033910DF14DC14830030930E39BDE8FD2B
:1007700034063410E672351032624F39BDE8FD346C
:1007800006BDE65B813D27037EE5563001BDE843AB
:10079000BDE9313410E772351032627EE5FCBDE60A
:1007A0005B9F128EE7AEBDE6212502340639555314
:1007B0005204E6A45045454B04E76D4D454D04E712
:1007C00062049E0A9C0C26031A033910A300260318
:1007D0001CFC3924051A011CFD3934028604300141
:1007E0003001A10026FA3502300120D88D5534069B
:1007F0005FBDE65B813D2723813C261030015CBD57
:10080000E65B813E26113001CB042013813E265F3A
:100810003001CB04BDE65B813D26043001CB0234C0
:10082000048D203410A3631FA8441F894848340452
:10083000ABE0840626014C5FA4622701534F3510BC
:100840003263396FE26FE2BDE65B812D2717812BA2
:10085000260230018D1CE360ED60BDE65B812B2735
:10086000F1812D260A30018D094050820020E735A4
:100870000639BDE8E53406BDE65B812A2748812FAD
:10088000270335063930018D5C341030623406A8F8
:1008900000BDE9243060BDE9243402861134024FE2
:1008A0005FA3622406E3621CFE20021A01696769E5
:1008B0006659496A6026EAA66132644D2A043062AC
:1008C0008D66351020B130018D1B3404E6623DA6E3
:1008D00061E761E6603DA662E76235043DAB60AB6F
:1008E00061ED602092BDE68B250934101F01EC00FC
:1008F000351039BDE6EA24FABDE79E24F58D1134A2
:1009000002BDE65B8129350226033001397EE556BA
:10091000BDE76224037EE54EBDE65B812826EE300E
:10092000017EE8436D002A086000600124026A002D
:10093000393402BDE65B810427037EE5563001357C
:100940000239BDE68B24037EE5563406BDE65B81A5
:100950003D27037EE5563001BDE8438DD49F123517
:1009600010ED009E127EE5FCBDE7EC5D27037EE600
:100970000D7EE5F3BDE8438DB8BDE7C2250F7EE6E9
:1009800009BDE8438DAB9F12BDE7C224037EE55F3E
:10099000BDE76224037EE54EDC123406DC16340625
:1009A000BDE6093506DD1635107EE5FCBDE65B814A
:1009B0002C2736813B273D810427258122260630BE
:1009C000018D422009BDE84334108D473510BDE646
:1009D0005B812C2714813B271B810427037EE5566E
:1009E0003410BDE53F35102014C6078620BDEBAAA4
:1009F000D51C26F73001BDE65B810426B230017EAE
:100A0000E5FCBDEBAAA680810426037EE556812283
:100A100026F0394D2A0D405082003402862DBDEB60
:100A2000AA35028EEA52300210A30024058CEA5C3B
:100A300026F40F1A10A3002506A3000C1A20F53483
:100A40000286309B1ABDEBAA35028CEA5C27043083
:100A50000220DF39271003E80064000A00018EEA53
:100A60005620CFBDE68B253C34069F12863FBDEB5A
:100A7000AABDE590BDE65B810427F1BDE6D6240B57
:100A80008EEAB8BDE538BDE53F20E19F183510ED91
:100A9000009E12BDE65B812C27037EE5F93001BD87
:100AA000E68B24037EE556340634109E18BDE65BC3
:100AB000812C26C0300120BC52452D454E54455254
:100AC000049E1086346F804A26FB9E0A7EE602BD95
:100AD000E6EA24084F5FDD12867F2017DD12BDE6AF
:100AE0005B812C27049612200A3001BDE6EA24031C
:100AF0007EE556BDE9313406DC129F12BDE7C29C8B
:100B00000C2728350610A30025283406EC81341064
:100B1000BDEA5E35108620BDEBAABDE53830013454
:100B200010BDE53F3510BDEB9C20D432628603BD7D
:100B3000EBAA9E127EE5FC4C455404E9424946046A
:100B4000E968474F544F04E974474F53554204E94D
:100B50008152455455524E04E931504F4B4504E7FC
:100B60007C5052494E5404E9AC494E50555404EA65
:100B70006352454D04E5F353544F5004EBE6454EA4
:100B80004404EBE652554E04EAC14C49535404EA7E
:100B9000CF4E455704E41F3F04E9AC048D2A2709D2
:100BA0008D0D810326037EE567390C1C7EEBB98D24
:100BB0001727FCB683FF847F393402B683FE850293
:100BC00027F93502B783FF393402B683FE85202723
:100BD00005B683FF20F485013502398603B783FE0D
:060BE0008615B783FE3903
:100C00007EEC104D4F4439466C6970466C6F700035
:100C1000BDE00F466C697020466C6F700D0A007E57
:100C2000EC2286AAB793FCB793FEBDEC3E7EEC3077
:100C30008655B793FCB793FEBDEC3E7EEC2286FA58
:100C4000BDEC475A26F8393416C6644A3D1F02BD2A
:100C5000EC5E8E0064BDEC5E3516398E00642000BB
:0B0C6000200020002000301F26F43987
:100D00007EED0F4D4F4439546573744D6F6400BDD3
:100D1000E00F54657374206D6F64756C650D0A0087
:030D20007EE00072
:101FF000E012E012E012E012E012E012E012E01251
:00000001FF